S0160000426174744F7250726F6A656374312E73726563BA
S11300000C94FE000C9412010C9412010C94120135
S11300100C9412010C9412010C9412010C94120110
S11300200C9412010C9412010C9412010C94120100
S11300300C9412010C9412010C9453010C941201AF
S11300400C9412010C9412010C9412010C941201E0
S11300500C9412010C9412010C9412010C941201D0
S11300600C9412010C9412010C9412010C941201C0
S11300700C9412010C9412010C9412010C941201B0
S11300800C9412010C9412010C9412010C941201A0
S11300900C9412010C9412010C9412010C94120190
S11300A00C9412010C9412010C9412010C94120180
S11300B00C9412010C9412010C9412010C94120170
S11300C00C9412010C9412010C9412010C94120160
S11300D00C9412010C9412010C9412010C94120150
S11300E00C9412010C9412010C9412010C94120140
S11300F00C9412010C9412010C9412010C94120130
S11301000C9412010C9412010C9412010C9412011F
S11301100C9412010C9412010C9412010C9412010F
S11301200C9412010C9412010C9412010C941201FF
S11301300C9412010C9412010C9412010C941201EF
S11301400C9412010C9412010C9412010C941201DF
S11301500C9412010C9412010C9412010C941201CF
S11301600C9412010C9412010C9412010C941201BF
S11301700C9412010C9412010C9412010C941201AF
S11301800C9412010C9412010C9412010C9412019F
S11301900C9412010C9412010C9412010C9412018F
S11301A00C9412010C9412010C9412010C9412017F
S11301B00C9412010C9412010C9412010C9412016F
S11301C00C9412010C9412010C9412010C9412015F
S11301D00C9412010C9412010C9412010C9412014F
S11301E00C9412010C9412010C9412010C9412013F
S11301F00C9412010C9412010C94120111241FBED0
S1130200CFEFCDBFDFE5DEBF00E00CBF20E2A0E012
S1130210B0E201C01D92AC32B207E1F70E94E501E1
S11302200C9400020C94000090914006982329F04D
S1130230E0E4F6E09481892B84830895E0E4F6E019
S113024080818160808380818260808380818460FA
S1130250808381E00E94140182E00E94140184E002
S11302600E941401089590914006982371F0E0E4EF
S1130270F6E024819481282311F0282F01C020E086
S11302802095892B8223809344060895E0E0F8E0CA
S113029081858860818781E08683808380ED97E013
S11302A086A397A308951F920F920FB60F9211245D
S11302B08F939F93AF93BF938091102090911120BF
S11302C0A0911220B09113200196A11DB11D80931D
S11302D0102090931120A0931220B0931320BF916B
S11302E0AF919F918F910F900FBE0F901F90189513
S11302F08F929F92AF92BF92FF920F931F93CF93CF
S1130300DF938091102090911120A0911220B09140
S1130310132080931C2090931D20A0931E20B09343
S11303201F20C0E0D0E200E010E0FF24F394FE01BF
S1130330888199810097C1F180901C2090901D20A4
S1130340A0901E20B0901F204091102050911120A9
S1130350609112207091132084169506A606B706A4
S113036090F44091102050911120609112207091CE
S11303701320481959096A097B092A813B81420FD4
S1130380531F4A835B83228133812817390760F026
S1130390281B390B228333838F2D002E01C0880F35
S11303A00A94EAF70E9433010F5F1F4F249603302B
S11303B0110509F0BCCFDF91CF911F910F91FF90F0
S11303C0BF90AF909F908F9008957894E0EAF0E00A
S11303D08281876082830E941E010E944601E0E0C0
S11303E0F0E284E690E0808391838AEF90E0848356
S11303F0958384EF91E0808791870E947801FDCFF7
S1070400F894FFCF9A
S9030000FC
