:100000000C94FE000C9412010C9412010C94120139
:100010000C9412010C9412010C9412010C94120114
:100020000C9412010C9412010C9412010C94120104
:100030000C9412010C9412010C9412010C941201F4
:100040000C9412010C9412010C9412010C941201E4
:100050000C9412010C9412010C9412010C941201D4
:100060000C9412010C9412010C9412010C941201C4
:100070000C9412010C9412010C9412010C941201B4
:100080000C9412010C9412010C9412010C941201A4
:100090000C9412010C9412010C9412010C94120194
:1000A0000C9412010C9412010C9412010C94120184
:1000B0000C9412010C9412010C9412010C94120174
:1000C0000C9412010C9412010C9412010C94120164
:1000D0000C9412010C9412010C9412010C94120154
:1000E0000C9412010C9412010C9412010C94120144
:1000F0000C9412010C9412010C9412010C94120134
:100100000C9412010C9412010C9412010C94120123
:100110000C9412010C9412010C9412010C94120113
:100120000C9412010C9412010C9412010C94120103
:100130000C9412010C9412010C9412010C941201F3
:100140000C9412010C9412010C9412010C941201E3
:100150000C9412010C9412010C9412010C941201D3
:100160000C9412010C9412010C9412010C941201C3
:100170000C9412010C9412010C9412010C941201B3
:100180000C9412010C9412010C9412010C941201A3
:100190000C9412010C9412010C9412010C94120193
:1001A0000C9412010C9412010C9412010C94120183
:1001B0000C9412010C9412010C9412010C94120173
:1001C0000C9412010C9412010C9412010C94120163
:1001D0000C9412010C9412010C9412010C94120153
:1001E0000C9412010C9412010C9412010C94120143
:1001F0000C9412010C9412010C94120111241FBED4
:10020000CFEFCDBFDFE5DEBF00E00CBF20E2A0E016
:10021000B0E201C01D92A531B207E1F70E94DC01F6
:100220000C940B020C94000063E080E098E00E94C4
:10023000FE0140ED57E061E080E098E00E94050299
:100240000895E0E0F0E24CE050E291E0292F28230D
:1002500011F060837183990F3496E417F507B1F7B5
:1002600008958F929F92AF92BF92EF92FF920F9359
:100270001F93CF93DF9300E010E2C0E0D0E0FF24B3
:10028000F394EC2EF801808191810097B9F1809070
:10029000112090901220A0901320B0901420409133
:1002A0000D2050910E2060910F2070911020841627
:1002B0009506A606B70690F440910D2050910E20A9
:1002C00060910F2070911020481959096A097B0923
:1002D00022813381420F531F428353832281338112
:1002E0002817390758F0281B390B228333838F2DA9
:1002F00001C0880FEA94EAF70E94D60121960C5FAC
:100300001F4FC330D10509F0BCCF80910D209091D3
:100310000E20A0910F20B091102080931120909377
:100320001220A0931320B0931420DF91CF911F913E
:100330000F91FF90EF90BF90AF909F908F90089596
:10034000442319F0FC0161830895FC016283089540
:10035000442319F0FC0165830895FC016683089528
:10036000FC016783089541E0682F80E496E00E94D5
:10037000A801089541E061E080E496E00E94A001B8
:1003800041E062E080E496E00E94A00141E064E088
:1003900080E496E00E94A00181E00E94B30182E027
:1003A0000E94B30184E00E94B3010895682F80E4A5
:1003B00096E00E94B00108957894E0EAF0E082812E
:1003C000876082830E94BA010E94140164E670E093
:1003D00081E00E9421016AEF70E082E00E94210129
:1003E00064EF71E084E00E94210180910C20813053
:1003F000E1F70E94310110920C20F7CFFC018185BA
:10040000886081876170668308956770FC016083EE
:0A04100046A357A30895F894FFCF08
:00000001FF
