:100000000C9402010C9423010C9423010C94230101
:100010000C9423010C9423010C9423010C942301D0
:100020000C9423010C9423010C9423010C942301C0
:100030000C9423010C9423010C945C010C94230177
:100040000C9423010C9423010C9423010C942301A0
:100050000C9423010C9423010C9423010C94230190
:100060000C9423010C9423010C9423010C94230180
:100070000C9423010C9423010C9423010C94230170
:100080000C9423010C9423010C9423010C94230160
:100090000C9423010C9423010C9423010C94230150
:1000A0000C9423010C9423010C9423010C94230140
:1000B0000C9423010C9423010C9423010C94230130
:1000C0000C9423010C9423010C9423010C94230120
:1000D0000C9423010C9423010C9423010C94230110
:1000E0000C9423010C9423010C9423010C94230100
:1000F0000C9423010C9423010C9423010C942301F0
:100100000C9423010C9423010C9423010C942301DF
:100110000C9423010C9423010C9423010C942301CF
:100120000C9423010C9423010C9423010C942301BF
:100130000C9423010C9423010C9423010C942301AF
:100140000C9423010C9423010C9423010C9423019F
:100150000C9423010C9423010C9423010C9423018F
:100160000C9423010C9423010C9423010C9423017F
:100170000C9423010C9423010C9423010C9423016F
:100180000C9423010C9423010C9423010C9423015F
:100190000C9423010C9423010C9423010C9423014F
:1001A0000C9423010C9423010C9423010C9423013F
:1001B0000C9423010C9423010C9423010C9423012F
:1001C0000C9423010C9423010C9423010C9423011F
:1001D0000C9423010C9423010C9423010C9423010F
:1001E0000C9423010C9423010C9423010C942301FF
:1001F0000C9423010C9423010C9423010C94E4042B
:100200000C94C60411241FBECFEFCDBFDFE5DEBFC7
:1002100000E00CBF10E2A0E0B0E2E6E2F4E100E0B2
:100220000BBF02C007900D92A63AB107D9F720E2A2
:10023000A6EAB0E201C01D92AC3CB207E1F70E9411
:1002400091030C94110A0C940000E0E4F2E0828126
:10025000806282838181806181838181118281E0DA
:10026000848380936002A1E6B2E08C9180618C93DC
:100270008C9185608C9382E080936802A9E6B2E05D
:100280008C9180618C938C9185608C93A6E6B2E012
:100290008C9181608C93808181608083089563E07C
:1002A00080E098E00E94FD0440E85EE361E080E0C9
:1002B00098E00E94040508951F920F920FB60F92C6
:1002C00011240BB60F922F933F934F935F936F932D
:1002D0007F938F939F93AF93BF93EF93FF938091FF
:1002E000B6209091B720A091B820B091B920019686
:1002F000A11DB11D8093B6209093B720A093B82084
:10030000B093B9208091B3208F5F8093B320E0E653
:10031000F2E0808180688083E8E6F2E08081806896
:10032000808381E08093BA208091B220811107C040
:1003300084E00E948B038091B2208823C9F310923D
:10034000B220FF91EF91BF91AF919F918F917F91DB
:100350006F915F914F913F912F910F900BBE0F9036
:100360000FBE0F901F901895E6EAF0E242EB50E2C4
:1003700091E0292F282311F060837183990F34961F
:10038000E417F507B1F708958F929F92AF92BF924D
:10039000EF92FF920F931F93CF93DF9306EA10E241
:1003A000C0E0D0E0FF24F394EC2EF801808191812D
:1003B0000097B9F18090BD209090BE20A090BF2002
:1003C000B090C0204091B6205091B7206091B820E5
:1003D0007091B92084169506A606B70690F4409150
:1003E000B6205091B7206091B8207091B92048197B
:1003F00059096A097B0922813381420F531F4283C5
:100400005383228133812817390758F0281B390B71
:10041000228333838F2D01C0880FEA94EAF70E946C
:100420008E0321960C5F1F4FC330D10509F0BCCF5E
:100430008091B6209091B720A091B820B091B920BA
:100440008093BD209093BE20A093BF20B093C02086
:10045000DF91CF911F910F91FF90EF90BF90AF90E0
:100460009F908F900895E0E5F0E08BEC828380818F
:1004700088608083818183FFFDCF88ED84BF83E026
:10048000809340000895FF920F931F93CF93DF93C3
:1004900000D01F92CDB7DEB7F82E00E416E0F801C9
:1004A000868381E090E889839A8322E030E040E00F
:1004B00050E0BE016F5F7F4F80EC98E00E948504A2
:1004C000F801F582F6821B821C8222E030E040E0D7
:1004D00050E0BE016D5F7F4F80EC98E00E94850484
:1004E000F801F5822496CDBFDEBFDF91CF911F9139
:1004F0000F91FF900895CF92DF92EF92FF920F93AA
:100500001F93CF93DF931F921F92CDB7DEB741E0C9
:1005100068E080E496E00E94680341E060E180E4E6
:1005200096E00E94680341E060EA80E496E00E9461
:10053000680340E060E480E496E00E94680300E421
:1005400016E06894EE24E3F8F801E5826894FF244D
:10055000F4F8F58280E4858387E58093C00840E065
:1005600060E480E496E00E946803F801868988616F
:10057000868B88E00E944302F801E6820F2EF2E0AB
:10058000CF2EFCE1DF2EF02DC982DA8222E030E0AE
:1005900040E050E0BE016F5F7F4F80EC98E00E942A
:1005A0008504F801E58288E00E944302F801F682A2
:1005B000C982DA8222E030E040E050E0BE016F5FA5
:1005C0007F4F80EC98E00E948504F801F58280E17D
:1005D0000E9443020F900F90DF91CF911F910F91D6
:1005E000FF90EF90DF90CF900895EF92FF921F93CE
:1005F000CF93DF9300D000D0CDB7DEB7182F0F2EEA
:10060000F0E4EF2EF6E0FF2EF02DF70186838FEF5A
:100610009FEF89839A8380E098E08B839C8322E01C
:1006200030E040E050E0BE016D5F7F4F80EC98E02D
:100630000E948504F70115831D821E82168322E025
:1006400030E0AE014F5F5F4FBE016B5F7F4F80ECCC
:1006500098E00E948504F7011583812F0E944302D0
:1006600089819A812696CDBFDEBFDF91CF911F9100
:10067000FF90EF900895EF92FF921F93CF93DF9337
:100680001F921F92CDB7DEB7182F0F2EF0E4EF2E7A
:10069000F6E0FF2EF02DF7018683746069837A837C
:1006A00022E030E040E050E0BE016F5F7F4F80EC21
:1006B00098E00E948504F7011583812F0E94430270
:1006C0000F900F90DF91CF911F91FF90EF900895C1
:1006D000442319F0FC0161830895FC0162830895AD
:1006E00041E061E080E496E00E94680341E062E05E
:1006F00080E496E00E94680341E064E080E496E0D4
:100700000E946803E0E4F6E081E0858382E085836F
:1007100084E0858308958093460608958093470674
:1007200008957894E0EAF0E08281876082830E94F5
:1007300070030E944F010E9433020E940A050E942A
:10074000F2040E947B020E94250168EC70E082E0C6
:100750000E94B4010E94BB030E94380460E070E074
:1007600082E00E94B40168EC70E081E00E94B40174
:100770000E943E04FDCF8F929F92AF92BF92CF9284
:10078000DF92EF92FF928EE090E20E94EF06E12C62
:10079000F12CC7010E94B1064AE050E060E070E031
:1007A000C7010E947D059B01AC012150310941091F
:1007B00051090F2EF0EA8F2EF6E89F2EAA24A3945B
:1007C000B12CF02DC501B4010E94220569017A0106
:1007D000FF92EF92DF922F9381E390E29F938F93AA
:1007E0000E94DB06C701B601052E5AE0660F771F8F
:1007F000881F991F5A95D1F7502DA50194010E9489
:100800002205B9016150710988E00E943B0388E02C
:100810000E94F502DC0120EA36E841E050E00E9447
:100820004105DC01CB01072E7AE0B695A795979597
:1008300087957A95D1F7702D8C599F4FAF4FBF4F49
:10084000BF93AF939F938F938CE490E29F938F938A
:100850000E94DB068DB79EB70C968DBF9EBFFF90A2
:10086000EF90DF90CF90BF90AF909F908F900895C2
:1008700061E070E088E00E943B0308958091BA2017
:10088000813009F041C08091B320853020F00E9472
:10089000C4011092B320E0E4F2E086818330E9F7EE
:1008A00080916402909165028093BB209093BC205C
:1008B00080916C0290916D028093B4209093B5204A
:1008C0002091B4203091B5208091BB209091BC2024
:1008D0003F932F939F938F938BE690E29F938F93F9
:1008E0000E94DB0681E08093B2208091C22090912B
:1008F000C32001968093C2209093C3200F900F9045
:100900000F900F900F900F900895CF93DF93FC01FD
:1009100041155105C1F06115710531F1D9011197EA
:1009200092F1620F731F240F351FEB018A91BE01F4
:10093000838392819923E9F38381E9018A939E015C
:1009400011979AF720C0A90141505109E2F0EB013B
:10095000C20FD31F8A91838382818823E9F3838125
:1009600041505109BAF70FC02115310561F0DA0184
:10097000240F351F138283818D9382818823E9F3AD
:10098000A217B307B9F7DF91CF910895E0EAF9E034
:10099000918195FFFDCF8093A009E0EAF9E0918174
:1009A00096FFFDCF8A3069F4E0EAF9E0818185FFA6
:1009B000FDCF8DE08093A009E0EAF9E0818186FF18
:1009C000FDCF80E090E00895E0EAF9E0818188239E
:1009D000ECF78091A0098D3011F090E008958AE045
:1009E00090E008950E940A05E4ECF0E280E090E2D5
:1009F00082839383808391830895FC01818588603D
:100A000081876170668308956770FC01608346A3E7
:100A100057A3089540E064E080E696E00E946803F2
:100A200041E068E080E696E00E94680388E08093F9
:100A30006506E0EAF9E088E1848383E08583168235
:100A400017820895052E97FB1EF400940E94390525
:100A500057FD07D00E944C0507FC03D04EF40C94C0
:100A6000390550954095309521953F4F4F4F5F4F39
:100A7000089590958095709561957F4F8F4F9F4F0A
:100A800008950E946E05A59F900DB49F900DA49FA0
:100A9000800D911D11240895A1E21A2EAA1BBB1BE3
:100AA000FD010DC0AA1FBB1FEE1FFF1FA217B3073A
:100AB000E407F50720F0A21BB30BE40BF50B661F50
:100AC000771F881F991F1A9469F760957095809514
:100AD00090959B01AC01BD01CF010895A29FB0018B
:100AE000B39FC001A39F700D811D1124911DB29F62
:100AF000700D811D1124911D08952F923F924F92E8
:100B00005F926F927F928F929F92AF92BF92CF929D
:100B1000DF92EF92FF920F931F93CF93DF935C01CD
:100B20006B017A016115710519F0FB0180839183D6
:100B3000E114F10429F0C7010297839708F0F1C08E
:100B4000E5012196F5011081812F90E00E94A80611
:100B5000892B11F05E01F4CF1D3229F42196F501A5
:100B6000118101E007C01B3221F4E5012296F50155
:100B7000118100E0E114F10459F1F0E1EF16F10404
:100B800061F41033E1F488818F7D883569F519812E
:100B90002296026070E1E72EF12C88E0E816F1045D
:100BA00039F12CF4F2E0EF16F104C9F12AC08AE021
:100BB000E816F10479F0E0E1EE16F10411F550E1E8
:100BC000E52EF12C812C912CA12C68E0B62E2CC0A6
:100BD0001033C9F23AE0E32EF12C4CEC842E982C21
:100BE000A82C4CE0B42E20C010E3E114F104A9F6C7
:100BF00098E0E92EF12C812C912CA12C20E1B22E31
:100C000013C060E070E080E090E897010F2C000CCA
:100C1000440B550B0E944C0549015A0105C0812C1B
:100C2000912CA12C80E4B82E60E020E030E0A901F6
:100C300027010F2C000C660877081E01E0EDE10F7C
:100C4000EA3060F08FEB810F8A3110F4E9EC05C0D7
:100C50008FE9810F8A3128F5E9EAE10F8E2F90E0C4
:100C60008E159F05F4F467FD18C082169306A4063E
:100C7000B50690F0C301B2010E94010A9B01AC01CC
:100C80002E0F311D411D511D213031054105F0E868
:100C90005F0710F461E001C06FEF2196F101108150
:100CA000CCCF802F8170C114D10471F0662329F05C
:100CB0002197F601C083D18307C001FF19C0229795
:100CC000F601C083D18314C067FF12C0811105C033
:100CD0002FEF3FEF4FEF5FE704C020E030E040E050
:100CE00050E882E290E08093CA209093CB2016C017
:100CF000882341F050954095309521953F4F4F4FB7
:100D00005F4F0CC057FF0AC082E290E08093CA2078
:100D10009093CB202FEF3FEF4FEF5FE7B901CA0170
:100D200004C060E070E080E090E0DF91CF911F911F
:100D30000F91FF90EF90DF90CF90BF90AF909F907A
:100D40008F907F906F905F904F903F902F9008957D
:100D500091110C941409803219F089508550C8F70C
:100D600008950F931F93CF93DF93E091C420F091E8
:100D7000C520238120FD03C080E090E017C0C92F6B
:100D8000D82F082F192F8091C4209091C5200E9440
:100D90002D098F3F2FEF920779F3F80181938F018F
:100DA0000A9789F7319710828D2F9C2FDF91CF9171
:100DB0001F910F910895CF93DF93CDB7DEB7AE01AA
:100DC0004A5F5F4FFA0161917191AF018091C62036
:100DD0009091C7200E941F07DF91CF9108950F9334
:100DE0001F93CF93DF93E091C620F091C72023811A
:100DF00021FF1BC08C01D0E0C0E0F80181918F0180
:100E00006091C6207091C720DB011896ED91FC918E
:100E10001997882331F01995892B79F3DFEFCFEFFC
:100E2000ECCF8AE01995892B19F08FEF9FEF02C064
:100E30008D2F9C2FDF91CF911F910F9108952F92AD
:100E40003F924F925F926F927F928F929F92AF925A
:100E5000BF92CF92DF92EF92FF920F931F93CF93A7
:100E6000DF93CDB7DEB72C97CDBFDEBF7C016B0122
:100E70008A01FC0116821782838181FFBDC1CE01E8
:100E800001964C01F7019381F60193FD859193FF43
:100E900081916F01882309F4ABC1853239F493FD48
:100EA000859193FF81916F01853229F4B70190E01C
:100EB0000E946B09E7CF512C312C20E02032A0F4A6
:100EC0008B3269F030F4803259F0833269F420615A
:100ED0002CC08D3239F0803339F4216026C0226075
:100EE000246023C0286021C027FD27C030ED380FC3
:100EF0003A3078F426FF06C0FAE05F9E300D1124E8
:100F0000532E13C08AE0389E300D1124332E2062F8
:100F10000CC08E3221F426FD6BC1206406C08C36D5
:100F200011F4206802C0883641F4F60193FD8591E2
:100F300093FF81916F018111C1CF982F9F7D9554AF
:100F4000933028F40C5F1F4FFFE3F9830DC0833605
:100F500031F0833771F0833509F05BC022C0F801AE
:100F6000808189830E5F1F4F44244394512C540188
:100F700015C03801F2E06F0E711CF801A080B1803D
:100F800026FF03C0652D70E002C06FEF7FEFC50143
:100F90002C870E9422092C0183012C852F77222E79
:100FA00017C03801F2E06F0E711CF801A080B1800B
:100FB00026FF03C0652D70E002C06FEF7FEFC50113
:100FC0002C870E9417092C012C852068222E830172
:100FD00023FC1BC0832D90E048165906B0F4B701DE
:100FE00080E290E00E946B093A94F4CFF50127FC6F
:100FF000859127FE81915F01B70190E00E946B0906
:1010000031103A94F1E04F1A51084114510471F72C
:10101000E5C0843611F0893639F5F80127FF07C09D
:1010200060817181828193810C5F1F4F08C0608154
:101030007181072E000C880B990B0E5F1F4F2F76C6
:10104000722E97FF09C090958095709561957F4F9E
:101050008F4F9F4F2068722E2AE030E0A4010E943B
:10106000A309A82EA81844C0853729F42F7EB22ED4
:101070002AE030E025C0F22FF97FBF2E8F36C1F075
:1010800018F4883579F0B4C0803719F0883721F02A
:10109000AFC02F2F2061B22EB4FE0DC08B2D846007
:1010A000B82E09C024FF0AC09F2F9660B92E06C033
:1010B00028E030E005C020E130E002C020E132E06D
:1010C000F801B7FE07C060817181828193810C5F56
:1010D0001F4F06C06081718180E090E00E5F1F4F5E
:1010E000A4010E94A309A82EA818FB2DFF777F2E2C
:1010F00076FE0BC0372D3E7FA51450F474FE0AC057
:1011000072FC08C0372D3E7E05C0BA2C372D03C0B7
:10111000BA2C01C0B52C34FF0DC0FE01EA0DF11D43
:101120008081803311F4397E09C032FF06C0B39448
:10113000B39404C0832F867809F0B39433FD13C0B1
:1011400030FF06C05A2CB31418F4530C5B18B32CA0
:10115000B31468F4B70180E290E03C870E946B0909
:10116000B3943C85F5CFB31410F43B1801C0312C77
:1011700034FF12C0B70180E390E03C870E946B0906
:101180003C8532FF17C031FD03C088E790E002C004
:1011900088E590E0B7010CC0832F867859F031FFC5
:1011A00002C08BE201C080E237FD8DE2B70190E022
:1011B0000E946B09A51438F4B70180E390E00E9407
:1011C0006B095A94F7CFAA94F401EA0DF11D8081BE
:1011D000B70190E00E946B09A110F5CF332009F40C
:1011E00051CEB70180E290E00E946B093A94F6CFAD
:1011F000F7018681978102C08FEF9FEF2C96CDBFBC
:10120000DEBFDF91CF911F910F91FF90EF90DF90A4
:10121000CF90BF90AF909F908F907F906F905F9096
:101220004F903F902F900895992788270895FC01AB
:101230000590615070400110D8F7809590958E0F01
:101240009F1F0895FC016150704001900110D8F774
:10125000809590958E0F9F1F0895CF93DF93EC019B
:101260002B8120FF33C026FF0AC02F7B2B838E816A
:101270009F8101968E839F838A8190E029C022FFFF
:101280000FC0E881F9818081082E000C990B00972E
:1012900019F420622B831AC03196E883F9830EC0BB
:1012A000EA85FB85199597FF09C02B81019611F0FE
:1012B00080E201C080E1822B8B8308C02E813F81B8
:1012C0002F5F3F4F2E833F83992702C08FEF9FEF01
:1012D000DF91CF9108950F931F93CF93DF93FB017D
:1012E000238121FD03C08FEF9FEF28C022FF16C08E
:1012F00046815781248135814217530744F4A081E8
:10130000B1819D012F5F3F4F208331838C932681D4
:1013100037812F5F3F4F2683378310C0EB01092FA2
:10132000182F0084F185E02D1995892BE1F68E8127
:101330009F8101968E839F83812F902FDF91CF9184
:101340001F910F910895FA01AA27283051F12031F9
:1013500081F1E8946F936E7F6E5F7F4F8F4F9F4F49
:10136000AF4FB1E03ED0B4E03CD0670F781F891F8B
:101370009A1FA11D680F791F8A1F911DA11D6A0F59
:10138000711D811D911DA11D20D009F468943F910C
:101390002AE0269F11243019305D3193DEF6CF010B
:1013A0000895462F4770405D4193B3E00FD0C9F7D1
:1013B000F6CF462F4F70405D4A3318F0495D31FD3E
:1013C0004052419302D0A9F7EACFB4E0A695979591
:1013D000879577956795BA95C9F700976105710567
:1013E00008959B01AC010A2E0694579547953795B1
:1013F0002795BA95C9F7620F731F841F951FA01D0B
:101400000895DB018F939F930E944105BF91AF9197
:10141000A29F800D911DA39F900DB29F900D11244E
:061420000895F894FFCFCF
:101426000000000300000000C604E4040000456E4E
:1014360074657220796F757220646573697265646C
:1014460020616D706C6966696572206761696E3AC4
:10145600000920596F75207265717565737465642E
:1014660020256C64206F686D732E0A00092054686D
:1014760065206265737420492063616E2067697612
:101486006520697320256C642E0A007465787420C3
:101496002564202564200A003D3D3D424547494ECE
:1014A6002043414C4942524154494F4E3D3D3D0037
:1014B6003D3D3D454E442043414C494252415449ED
:0614C6004F4E3D3D3D00CC
:00000001FF
