:100000000C9402010C9423010C9423010C94230101
:100010000C9423010C9423010C9423010C942301D0
:100020000C9423010C9423010C9423010C942301C0
:100030000C9423010C9423010C9432010C942301A1
:100040000C9423010C9423010C9423010C942301A0
:100050000C9423010C9423010C9423010C94230190
:100060000C9423010C9423010C9423010C94230180
:100070000C9423010C9423010C9423010C94230170
:100080000C9423010C9423010C9423010C94230160
:100090000C9423010C9423010C9423010C94230150
:1000A0000C9423010C9423010C9423010C94230140
:1000B0000C9423010C9423010C9423010C94230130
:1000C0000C9423010C9423010C9423010C94230120
:1000D0000C9423010C9423010C9423010C94230110
:1000E0000C9423010C9423010C9423010C94230100
:1000F0000C9423010C9423010C9423010C942301F0
:100100000C9423010C9423010C9423010C942301DF
:100110000C9423010C9423010C9423010C942301CF
:100120000C9423010C9423010C9423010C942301BF
:100130000C9423010C9423010C9423010C942301AF
:100140000C9423010C9423010C9423010C9423019F
:100150000C9423010C9423010C9423010C9423018F
:100160000C9423010C9423010C9423010C9423017F
:100170000C9423010C9423010C9423010C9423016F
:100180000C9423010C9423010C9423010C9423015F
:100190000C9423010C9423010C9423010C9423014F
:1001A0000C9423010C9423010C9423010C9423013F
:1001B0000C9423010C9423010C9423010C9423012F
:1001C0000C9423010C9423010C9423010C9423011F
:1001D0000C9423010C9423010C9423010C9423010F
:1001E0000C9423010C9423010C9423010C942301FF
:1001F0000C9423010C9423010C9423010C948E0382
:100200000C94AC0311241FBECFEFCDBFDFE5DEBFE2
:1002100000E00CBF10E2A0E0B0E2E6EBF1E100E0AC
:100220000BBF02C007900D92A63BB107D9F720E2A1
:10023000A6EBB0E201C01D92A43DB207E1F70E9417
:10024000BD020C94D9080C94000063E080E098E0B3
:100250000E94C50340ED57E061E080E098E00E9415
:10026000CC0308951F920F920FB60F9211248F9313
:100270009F93AF93BF938091C3209091C420A0918E
:10028000C520B091C6200196A11DB11D8093C32049
:100290009093C420A093C520B093C6208091C22023
:1002A0008F5F8093C220BF91AF919F918F910F90EC
:1002B0000FBE0F901F901895E6EBF0E242EC50E273
:1002C00091E0292F282311F060837183990F3496D0
:1002D000E417F507B1F708958F929F92AF92BF92FE
:1002E000EF92FF920F931F93CF93DF9306EB10E2F1
:1002F000C0E0D0E0FF24F394EC2EF80180819181DE
:100300000097B9F18090C7209090C820A090C92094
:10031000B090CA204091C3205091C4206091C52064
:100320007091C62084169506A606B70690F44091F3
:10033000C3205091C4206091C5207091C6204819F7
:1003400059096A097B0922813381420F531F428375
:100350005383228133812817390758F0281B390B22
:10036000228333838F2D01C0880FEA94EAF70E941D
:10037000BA0221960C5F1F4FC330D10509F0BCCFE4
:100380008091C3209091C420A091C520B091C62037
:100390008093C7209093C820A093C920B093CA200F
:1003A000DF91CF911F910F91FF90EF90BF90AF9091
:1003B0009F908F900895E0E5F0E08BEC8283808140
:1003C00088608083818183FFFDCF88ED84BF83E0D7
:1003D000809340000895FF920F931F93CF93DF9374
:1003E00000D01F92CDB7DEB7F82E00E416E0F8017A
:1003F000868380E090E0A1E0B0E889839A83AB83B4
:10040000BC8324E030E040E050E0BE016F5F7F4FEE
:1004100080EC98E00E944D03F801F5822496CDBF50
:10042000DEBFDF91CF911F910F91FF900895FF9252
:100430000F931F93CF93DF931F921F92CDB7DEB719
:1004400041E068E080E496E00E94970241E060E1CC
:1004500080E496E00E94970241E060EA80E496E042
:100460000E94970240E060E480E496E00E949702D8
:1004700000E416E06894FF24F3F8F801F58280E1C7
:10048000858380E4858387E58093C00840E060E44D
:1004900080E496E00E94970288E00E94EB01F80158
:1004A000F68282E09CE189839A8322E030E040E09A
:1004B00050E0BE016F5F7F4F80EC98E00E944D03DB
:1004C000F801F5820F900F90DF91CF911F910F915E
:1004D000FF900895EF92FF921F93CF93DF931F92A7
:1004E0001F92CDB7DEB7182F0F2EF0E4EF2EF6E0F7
:1004F000FF2EF02DF7018683746069837A8322E0F2
:1005000030E040E050E0BE016F5F7F4F80EC98E04C
:100510000E944D03F7011583812F0E94EB010F907C
:100520000F90DF91CF911F91FF90EF90089544239A
:1005300019F0FC0161830895FC016283089541E094
:1005400061E080E496E00E94970241E062E080E48E
:1005500096E00E94970241E064E080E496E00E9409
:100560009702E0E4F6E081E0858382E0858384E021
:10057000858308958093470608957894E0EAF0E033
:100580008281876082830E949F020E94250164E627
:1005900070E081E00E945C016AEF70E082E00E94FE
:1005A0005C0164EF71E084E00E945C010E94DB0169
:1005B0000E94D2030E94BA030E9417026FEF73E0F9
:1005C00088E00E946A0208E310E20F2EF0EA8F2E04
:1005D000F6E89F2EAA24A394B12CF02D0F2EF8EE4E
:1005E0004F2EF3E05F2E612C712CF02DC3E5D0E28D
:1005F0008EE090E20E94C705E12CF12CC7010E9419
:1006000089054AE050E060E070E0C7010E945504AF
:100610006B017C01FF92EF92DF926F931F930F9318
:100620000E94B305C701B601052E5AE0660F771F79
:10063000881F991F5A95D1F7502DA50194010E944A
:10064000FA0369017A014427552768E77DE781E0CD
:1006500090E00E94EA03A30192010E94FA035F93D3
:100660004F933F932F93DF93CF930E94B305B6012F
:100670006150710988E00E946A028091C2202DB702
:100680003EB7245F3F4F2DBF3EBF853008F4B0CF4B
:100690000E946C011092C220ABCFCF93DF93FC017C
:1006A00041155105C1F06115710531F1D90111975D
:1006B00092F1620F731F240F351FEB018A91BE0167
:1006C000838392819923E9F38381E9018A939E01CF
:1006D00011979AF720C0A90141505109E2F0EB01AE
:1006E000C20FD31F8A91838382818823E9F3838198
:1006F00041505109BAF70FC02115310561F0DA01F7
:10070000240F351F138283818D9382818823E9F31F
:10071000A217B307B9F7DF91CF910895E0EAF9E0A6
:10072000918195FFFDCF8093A009E0EAF9E09181E6
:1007300096FFFDCF8A3069F4E0EAF9E0818185FF18
:10074000FDCF8DE08093A009E0EAF9E0818186FF8A
:10075000FDCF80E090E00895E0EAF9E08181882310
:10076000ECF78091A0098D3011F090E008958AE0B7
:1007700090E008950E94D203ECECF0E280E090E279
:1007800082839383808391830895FC0181858860AF
:1007900081876170668308956770FC01608346A35A
:1007A00057A3089540E064E080E696E00E94970237
:1007B00041E068E080E696E00E94970288E080933E
:1007C0006506E0EAF9E088E1848383E085831682A8
:1007D00017820895DB018F939F930E941904BF91A4
:1007E000AF91A29F800D911DA39F900DB29F900D80
:1007F00011240895052E97FB1EF400940E94110405
:1008000057FD07D00E94240407FC03D04EF40C943B
:10081000110450954095309521953F4F4F4F5F4FB4
:10082000089590958095709561957F4F8F4F9F4F5C
:1008300008950E944604A59F900DB49F900DA49F1B
:10084000800D911D11240895A1E21A2EAA1BBB1B35
:10085000FD010DC0AA1FBB1FEE1FFF1FA217B3078C
:10086000E407F50720F0A21BB30BE40BF50B661FA2
:10087000771F881F991F1A9469F760957095809566
:1008800090959B01AC01BD01CF010895A29FB001DD
:10089000B39FC001A39F700D811D1124911DB29FB4
:1008A000700D811D1124911D08952F923F924F923A
:1008B0005F926F927F928F929F92AF92BF92CF92F0
:1008C000DF92EF92FF920F931F93CF93DF935C0120
:1008D0006B017A016115710519F0FB018083918329
:1008E000E114F10429F0C7010297839708F0F1C0E1
:1008F000E5012196F5011081812F90E00E9480058D
:10090000892B11F05E01F4CF1D3229F42196F501F7
:10091000118101E007C01B3221F4E5012296F501A7
:10092000118100E0E114F10459F1F0E1EF16F10456
:1009300061F41033E1F488818F7D883569F5198180
:100940002296026070E1E72EF12C88E0E816F104AF
:1009500039F12CF4F2E0EF16F104C9F12AC08AE073
:10096000E816F10479F0E0E1EE16F10411F550E13A
:10097000E52EF12C812C912CA12C68E0B62E2CC0F8
:100980001033C9F23AE0E32EF12C4CEC842E982C73
:10099000A82C4CE0B42E20C010E3E114F104A9F619
:1009A00098E0E92EF12C812C912CA12C20E1B22E83
:1009B00013C060E070E080E090E897010F2C000C1D
:1009C000440B550B0E94240449015A0105C0812C97
:1009D000912CA12C80E4B82E60E020E030E0A90149
:1009E00027010F2C000C660877081E01E0EDE10FCF
:1009F000EA3060F08FEB810F8A3110F4E9EC05C02A
:100A00008FE9810F8A3128F5E9EAE10F8E2F90E016
:100A10008E159F05F4F467FD18C082169306A40690
:100A2000B50690F0C301B2010E94EA039B01AC013C
:100A30002E0F311D411D511D213031054105F0E8BA
:100A40005F0710F461E001C06FEF2196F1011081A2
:100A5000CCCF802F8170C114D10471F0662329F0AE
:100A60002197F601C083D18307C001FF19C02297E7
:100A7000F601C083D18314C067FF12C0811105C085
:100A80002FEF3FEF4FEF5FE704C020E030E040E0A2
:100A900050E882E290E08093D2209093D32016C059
:100AA000882341F050954095309521953F4F4F4F09
:100AB0005F4F0CC057FF0AC082E290E08093D220C3
:100AC0009093D3202FEF3FEF4FEF5FE7B901CA01BB
:100AD00004C060E070E080E090E0DF91CF911F9172
:100AE0000F91FF90EF90DF90CF90BF90AF909F90CD
:100AF0008F907F906F905F904F903F902F900895D0
:100B000091110C94EC07803219F089508550C8F788
:100B100008950F931F93CF93DF93E091CC20F09132
:100B2000CD20238120FD03C080E090E017C0C92FB5
:100B3000D82F082F192F8091CC209091CD200E9482
:100B400005088F3F2FEF920779F3F80181938F010A
:100B50000A9789F7319710828D2F9C2FDF91CF91C3
:100B60001F910F910895CF93DF93CDB7DEB7AE01FC
:100B70004A5F5F4FFA0161917191AF018091CE2080
:100B80009091CF200E94F705DF91CF9108950F93A8
:100B90001F93CF93DF93E091CE20F091CF2023815C
:100BA00021FF1BC08C01D0E0C0E0F80181918F01D2
:100BB0006091CE207091CF20DB011896ED91FC91D1
:100BC0001997882331F01995892B79F3DFEFCFEF4F
:100BD000ECCF8AE01995892B19F08FEF9FEF02C0B7
:100BE0008D2F9C2FDF91CF911F910F9108952F9200
:100BF0003F924F925F926F927F928F929F92AF92AD
:100C0000BF92CF92DF92EF92FF920F931F93CF93F9
:100C1000DF93CDB7DEB72C97CDBFDEBF7C016B0174
:100C20008A01FC0116821782838181FFBDC1CE013A
:100C300001964C01F7019381F60193FD859193FF95
:100C400081916F01882309F4ABC1853239F493FD9A
:100C5000859193FF81916F01853229F4B70190E06E
:100C60000E944308E7CF512C312C20E02032A0F421
:100C70008B3269F030F4803259F0833269F42061AC
:100C80002CC08D3239F0803339F4216026C02260C7
:100C9000246023C0286021C027FD27C030ED380F15
:100CA0003A3078F426FF06C0FAE05F9E300D11243A
:100CB000532E13C08AE0389E300D1124332E20624B
:100CC0000CC08E3221F426FD6BC1206406C08C3628
:100CD00011F4206802C0883641F4F60193FD859135
:100CE00093FF81916F018111C1CF982F9F7D955402
:100CF000933028F40C5F1F4FFFE3F9830DC0833658
:100D000031F0833771F0833509F05BC022C0F80100
:100D1000808189830E5F1F4F44244394512C5401DA
:100D200015C03801F2E06F0E711CF801A080B1808F
:100D300026FF03C0652D70E002C06FEF7FEFC50195
:100D40002C870E94FA072C0183012C852F77222EF5
:100D500017C03801F2E06F0E711CF801A080B1805D
:100D600026FF03C0652D70E002C06FEF7FEFC50165
:100D70002C870E94EF072C012C852068222E8301EE
:100D800023FC1BC0832D90E048165906B0F4B70130
:100D900080E290E00E9443083A94F4CFF50127FCEA
:100DA000859127FE81915F01B70190E00E94430881
:100DB00031103A94F1E04F1A51084114510471F77F
:100DC000E5C0843611F0893639F5F80127FF07C0F0
:100DD00060817181828193810C5F1F4F08C06081A7
:100DE0007181072E000C880B990B0E5F1F4F2F7619
:100DF000722E97FF09C090958095709561957F4FF1
:100E00008F4F9F4F2068722E2AE030E0A4010E948D
:100E10007B08A82EA81844C0853729F42F7EB22E4F
:100E20002AE030E025C0F22FF97FBF2E8F36C1F0C7
:100E300018F4883579F0B4C0803719F0883721F07C
:100E4000AFC02F2F2061B22EB4FE0DC08B2D846059
:100E5000B82E09C024FF0AC09F2F9660B92E06C085
:100E600028E030E005C020E130E002C020E132E0BF
:100E7000F801B7FE07C060817181828193810C5FA8
:100E80001F4F06C06081718180E090E00E5F1F4FB0
:100E9000A4010E947B08A82EA818FB2DFF777F2EA7
:100EA00076FE0BC0372D3E7FA51450F474FE0AC0A9
:100EB00072FC08C0372D3E7E05C0BA2C372D03C00A
:100EC000BA2C01C0B52C34FF0DC0FE01EA0DF11D96
:100ED0008081803311F4397E09C032FF06C0B3949B
:100EE000B39404C0832F867809F0B39433FD13C004
:100EF00030FF06C05A2CB31418F4530C5B18B32CF3
:100F0000B31468F4B70180E290E03C870E94430884
:100F1000B3943C85F5CFB31410F43B1801C0312CC9
:100F200034FF12C0B70180E390E03C870E94430881
:100F30003C8532FF17C031FD03C088E790E002C056
:100F400088E590E0B7010CC0832F867859F031FF17
:100F500002C08BE201C080E237FD8DE2B70190E074
:100F60000E944308A51438F4B70180E390E00E9482
:100F700043085A94F7CFAA94F401EA0DF11D808139
:100F8000B70190E00E944308A110F5CF332009F487
:100F900051CEB70180E290E00E9443083A94F6CF28
:100FA000F7018681978102C08FEF9FEF2C96CDBF0E
:100FB000DEBFDF91CF911F910F91FF90EF90DF90F7
:100FC000CF90BF90AF909F908F907F906F905F90E9
:100FD0004F903F902F900895992788270895FC01FE
:100FE0000590615070400110D8F7809590958E0F54
:100FF0009F1F0895FC016150704001900110D8F7C7
:10100000809590958E0F9F1F0895CF93DF93EC01ED
:101010002B8120FF33C026FF0AC02F7B2B838E81BC
:101020009F8101968E839F838A8190E029C022FF51
:101030000FC0E881F9818081082E000C990B009780
:1010400019F420622B831AC03196E883F9830EC00D
:10105000EA85FB85199597FF09C02B81019611F050
:1010600080E201C080E1822B8B8308C02E813F810A
:101070002F5F3F4F2E833F83992702C08FEF9FEF53
:10108000DF91CF9108950F931F93CF93DF93FB01CF
:10109000238121FD03C08FEF9FEF28C022FF16C0E0
:1010A00046815781248135814217530744F4A0813A
:1010B000B1819D012F5F3F4F208331838C93268127
:1010C00037812F5F3F4F2683378310C0EB01092FF5
:1010D000182F0084F185E02D1995892BE1F68E817A
:1010E0009F8101968E839F83812F902FDF91CF91D7
:1010F0001F910F910895FA01AA27283051F120314C
:1011000081F1E8946F936E7F6E5F7F4F8F4F9F4F9B
:10111000AF4FB1E03ED0B4E03CD0670F781F891FDD
:101120009A1FA11D680F791F8A1F911DA11D6A0FAB
:10113000711D811D911DA11D20D009F468943F915E
:101140002AE0269F11243019305D3193DEF6CF015D
:101150000895462F4770405D4193B3E00FD0C9F723
:10116000F6CF462F4F70405D4A3318F0495D31FD90
:101170004052419302D0A9F7EACFB4E0A6959795E3
:10118000879577956795BA95C9F7009761057105B9
:1011900008959B01AC010A2E069457954795379503
:1011A0002795BA95C9F7620F731F841F951FA01D5D
:0611B0000895F894FFCF42
:1011B60000000003000000008E03AC030000456E33
:1011C60074657220796F75722064657369726564DF
:1011D60020726573697374616E636520696E204F52
:1011E600686D732E2E2E20000920596F75207265AA
:1011F6007175657374656420256C64206F686D7302
:101206002E0A0009205468652062657374204920FF
:1012160063616E206769766520697320256C642E8C
:1012260020427574206174206C6561737420796F37
:1012360075277265206E6F7420612070726F63650A
:1012460073736F72207265647563656420746F20B2
:10125600612070616C747279207265736973746F42
:06126600722E200A0000B8
:00000001FF
