:100000000C94FE000C941F010C941F010C941F0112
:100010000C941F010C941F010C941F010C941F01E0
:100020000C941F010C941F010C941F010C941F01D0
:100030000C941F010C941F010C9461010C941F017E
:100040000C941F010C941F010C941F010C941F01B0
:100050000C941F010C941F010C941F010C941F01A0
:100060000C941F010C941F010C941F010C941F0190
:100070000C941F010C941F010C941F010C941F0180
:100080000C941F010C941F010C941F010C941F0170
:100090000C941F010C941F010C941F010C941F0160
:1000A0000C941F010C941F010C941F010C941F0150
:1000B0000C941F010C941F010C941F010C941F0140
:1000C0000C941F010C941F010C941F010C941F0130
:1000D0000C941F010C941F010C941F010C941F0120
:1000E0000C941F010C941F010C941F010C941F0110
:1000F0000C941F010C941F010C941F010C941F0100
:100100000C941F010C941F010C941F010C941F01EF
:100110000C941F010C941F010C941F010C941F01DF
:100120000C941F010C941F010C941F010C941F01CF
:100130000C941F010C941F010C941F010C941F01BF
:100140000C941F010C941F010C941F010C941F01AF
:100150000C941F010C941F010C941F010C941F019F
:100160000C941F010C941F010C941F010C941F018F
:100170000C941F010C941F010C941F010C941F017F
:100180000C941F010C941F010C941F010C941F016F
:100190000C941F010C941F010C941F010C941F015F
:1001A0000C941F010C941F010C941F010C941F014F
:1001B0000C941F010C941F010C941F010C941F013F
:1001C0000C941F010C941F010C941F010C941F012F
:1001D0000C941F010C941F010C941F010C941F011F
:1001E0000C941F010C941F010C941F010C941F010F
:1001F0000C941F010C941F010C941F0111241FBEAD
:10020000CFEFCDBFDFE5DEBF00E00CBF10E2A0E026
:10021000B0E2ECE5F3E000E00BBF02C007900D9206
:10022000A030B107D9F720E2A0E0B0E201C01D92F2
:10023000A430B207E1F70E949F010C94AC010C942A
:10024000000090914006982329F0E0E4F6E09481C4
:10025000892B84830895E0E4F6E0808181608083C7
:1002600080818260808380818460808381E00E94BD
:10027000210182E00E94210184E00E942101089571
:1002800090914006982371F0E0E4F6E02481948197
:10029000282311F0282F01C020E02095892B8223EC
:1002A000809344060895E0E0F8E0818588608187C6
:1002B00083E0868381E0808388EE93E086A397A322
:1002C00008951F920F920FB60F9211248F939F9350
:1002D000AF93BF938091002090910120A0910220C4
:1002E000B09103200196A11DB11D80930020909331
:1002F0000120A0930220B0930320BF91AF919F9162
:100300008F910F900FBE0F901F9018958091002035
:1003100090910120A0910220B0910320893E93404A
:10032000A105B10558F084E00E9440011092002020
:1003300010920120109202201092032008957894C8
:10034000E0EAF0E08281876082830E942B010E94B4
:0C03500053010E948601FDCFF894FFCFFE
:00000001FF
