:100000000C94FE000C9412010C9412010C94120139
:100010000C9412010C9412010C9412010C94120114
:100020000C9412010C9412010C9412010C94120104
:100030000C9412010C9412010C9454010C941201B2
:100040000C9412010C9412010C9412010C941201E4
:100050000C9412010C9412010C9412010C941201D4
:100060000C9412010C9412010C9412010C941201C4
:100070000C9412010C9412010C9412010C941201B4
:100080000C9412010C9412010C9412010C941201A4
:100090000C9412010C9412010C9412010C94120194
:1000A0000C9412010C9412010C9412010C94120184
:1000B0000C9412010C9412010C9412010C94120174
:1000C0000C9412010C9412010C9412010C94120164
:1000D0000C9412010C9412010C9412010C94120154
:1000E0000C9412010C9412010C9412010C94120144
:1000F0000C9412010C9412010C9412010C94120134
:100100000C9412010C9412010C9412010C94120123
:100110000C9412010C9412010C9412010C94120113
:100120000C9412010C9412010C9412010C94120103
:100130000C9412010C9412010C9412010C941201F3
:100140000C9412010C9412010C9412010C941201E3
:100150000C9412010C9412010C9412010C941201D3
:100160000C9412010C9412010C9412010C941201C3
:100170000C9412010C9412010C9412010C941201B3
:100180000C9412010C9412010C9412010C941201A3
:100190000C9412010C9412010C9412010C94120193
:1001A0000C9412010C9412010C9412010C94120183
:1001B0000C9412010C9412010C9412010C94120173
:1001C0000C9412010C9412010C9412010C94120163
:1001D0000C9412010C9412010C9412010C94120153
:1001E0000C9412010C9412010C9412010C94120143
:1001F0000C9412010C9412010C94120111241FBED4
:10020000CFEFCDBFDFE5DEBF00E00CBF20E2A0E016
:10021000B0E201C01D92A431B207E1F70E94D701FC
:100220000C94F2010C94000090914006982329F060
:10023000E0E4F6E09481892B84830895E0E4F6E01D
:1002400080818160808380818260808380818460FE
:10025000808381E00E94140182E00E94140184E006
:100260000E941401089590914006982371F0E0E4F3
:10027000F6E024819481282311F0282F01C020E08A
:100280002095892B8223809344060895E0E0F8E0CE
:1002900081858860818783E0868381E0808388EE22
:1002A00093E086A397A308951F920F920FB60F9223
:1002B00011248F939F93AF93BF9380910C209091C3
:1002C0000D20A0910E20B0910F200196A11DB11D0F
:1002D00080930C2090930D20A0930E20B0930F20BC
:1002E000BF91AF919F918F910F900FBE0F901F9074
:1002F0001895CF92DF92EF92FF921F93CF93DF93E7
:10030000C0E0D0E210E0FE0188819981009709F4F5
:1003100041C0C0901020D0901120E0901220F090A9
:10032000132040910C2050910D2060910E2070916F
:100330000F20C416D506E606F70690F440910C206F
:1003400050910D2060910E2070910F204C195D0985
:100350006E097F092A813B81420F531F4A835B83C9
:1003600040910C2050910D2060910E2070910F2033
:10037000409310205093112060931220709313200B
:10038000228133812817390728F012821382812FA6
:100390000E94330124961F5F133009F0B4CFDF9120
:1003A000CF911F91FF90EF90DF90CF9008957894B8
:1003B000E0EAF0E08281876082830E941E010E9451
:1003C0004601E0E0F0E280ED97E0808B918B80EADF
:1003D0009FE08483958380E797E1808791870E94DF
:0803E0007901FDCFF894FFCF75
:00000001FF
