:100000000C94FE000C9412010C9412010C94120139
:100010000C9412010C9412010C9412010C94120114
:100020000C9412010C9412010C9412010C94120104
:100030000C9412010C9412010C9454010C941201B2
:100040000C9412010C9412010C9412010C941201E4
:100050000C9412010C9412010C9412010C941201D4
:100060000C9412010C9412010C9412010C941201C4
:100070000C9412010C9412010C9412010C941201B4
:100080000C9412010C9412010C9412010C941201A4
:100090000C9412010C9412010C9412010C94120194
:1000A0000C9412010C9412010C9412010C94120184
:1000B0000C9412010C9412010C9412010C94120174
:1000C0000C9412010C9412010C9412010C94120164
:1000D0000C9412010C9412010C9412010C94120154
:1000E0000C9412010C9412010C9412010C94120144
:1000F0000C9412010C9412010C9412010C94120134
:100100000C9412010C9412010C9412010C94120123
:100110000C9412010C9412010C9412010C94120113
:100120000C9412010C9412010C9412010C94120103
:100130000C9412010C9412010C9412010C941201F3
:100140000C9412010C9412010C9412010C941201E3
:100150000C9412010C9412010C9412010C941201D3
:100160000C9412010C9412010C9412010C941201C3
:100170000C9412010C9412010C9412010C941201B3
:100180000C9412010C9412010C9412010C941201A3
:100190000C9412010C9412010C9412010C94120193
:1001A0000C9412010C9412010C9412010C94120183
:1001B0000C9412010C9412010C9412010C94120173
:1001C0000C9412010C9412010C9412010C94120163
:1001D0000C9412010C9412010C9412010C94120153
:1001E0000C9412010C9412010C9412010C94120143
:1001F0000C9412010C9412010C94120111241FBED4
:10020000CFEFCDBFDFE5DEBF00E00CBF20E2A0E016
:10021000B0E201C01D92A431B207E1F70E94E501EE
:100220000C9400020C94000090914006982329F051
:10023000E0E4F6E09481892B84830895E0E4F6E01D
:1002400080818160808380818260808380818460FE
:10025000808381E00E94140182E00E94140184E006
:100260000E941401089590914006982371F0E0E4F3
:10027000F6E024819481282311F0282F01C020E08A
:100280002095892B8223809344060895E0E0F8E0CE
:1002900081858860818783E0868381E080838AEF1F
:1002A00090E086A397A308951F920F920FB60F9226
:1002B00011248F939F93AF93BF9380910C209091C3
:1002C0000D20A0910E20B0910F200196A11DB11D0F
:1002D00080930C2090930D20A0930E20B0930F20BC
:1002E000BF91AF919F918F910F900FBE0F901F9074
:1002F00018958F929F92AF92BF92FF920F931F9388
:10030000CF93DF93C0E0D0E200E010E0FF24F3944D
:10031000FE0188819981009709F446C080901020E1
:1003200090901120A0901220B090132040910C20AA
:1003300050910D2060910E2070910F20841695062B
:10034000A606B70690F440910C2050910D206091C4
:100350000E2070910F20481959096A097B092A81DA
:100360003B81420F531F4A835B8340910C20509185
:100370000D2060910E2070910F204093102050931B
:10038000112060931220709313202281338128174B
:10039000390750F0128213828F2D002E01C0880F72
:1003A0000A94EAF70E9433010F5F1F4F249603302F
:1003B000110509F0ADCFDF91CF911F910F91FF9003
:1003C000BF90AF909F908F9008957894E0EAF0E00E
:1003D0008281876082830E941E010E944601E0E0C4
:1003E000F0E282E390E0808391838DE790E0848364
:1003F00095838AEF90E0808791870E947901FDCFF5
:04040000F894FFCF9E
:00000001FF
