S0160000426174744F7250726F6A656374312E73726563BA
S11300000C94FE000C9412010C9412010C94120135
S11300100C9412010C9412010C9412010C94120110
S11300200C9412010C9412010C9412010C94120100
S11300300C9412010C9412010C942D010C941201D5
S11300400C9412010C9412010C9412010C941201E0
S11300500C9412010C9412010C9412010C941201D0
S11300600C9412010C9412010C9412010C941201C0
S11300700C9412010C9412010C9412010C941201B0
S11300800C9412010C9412010C9412010C941201A0
S11300900C9412010C9412010C9412010C94120190
S11300A00C9412010C9412010C9412010C94120180
S11300B00C9412010C9412010C9412010C94120170
S11300C00C9412010C9412010C9412010C94120160
S11300D00C9412010C9412010C9412010C94120150
S11300E00C9412010C9412010C9412010C94120140
S11300F00C9412010C9412010C9412010C94120130
S11301000C9412010C9412010C9412010C9412011F
S11301100C9412010C9412010C9412010C9412010F
S11301200C9412010C9412010C9412010C941201FF
S11301300C9412010C9412010C9412010C941201EF
S11301400C9412010C9412010C9412010C941201DF
S11301500C9412010C9412010C9412010C941201CF
S11301600C9412010C9412010C9412010C941201BF
S11301700C9412010C9412010C9412010C941201AF
S11301800C9412010C9412010C9412010C9412019F
S11301900C9412010C9412010C9412010C9412018F
S11301A00C9412010C9412010C9412010C9412017F
S11301B00C9412010C9412010C9412010C9412016F
S11301C00C9412010C9412010C9412010C9412015F
S11301D00C9412010C9412010C9412010C9412014F
S11301E00C9412010C9412010C9412010C9412013F
S11301F00C9412010C9412010C94120111241FBED0
S1130200CFEFCDBFDFE5DEBF00E00CBF20E2A0E012
S1130210B0E201C01D92A531B207E1F70E940102CC
S11302200C9445020C940000E0E4F6E021E0218304
S113023092E0918384E08183258395838583089567
S1130240E0E0F8E081858860818781E086838083AF
S113025080ED97E086A397A308951F920F920FB69F
S11302600F9211240BB60F922F933F934F935F93EA
S11302706F937F938F939F93AF93BF93EF93FF936A
S113028080910D2090910E20A0910F20B09110200C
S11302900196A11DB11D80930D2090930E20A09373
S11302A00F20B093102060910D2070910E2080914A
S11302B00F209091102025E030E040E050E00E94B3
S11302C02302672B682B692B19F481E080930C209F
S11302D0FF91EF91BF91AF919F918F917F916F911A
S11302E05F914F913F912F910F900BBE0F900FBED6
S11302F00F901F901895E0E0F0E24CE050E291E09E
S1130300292F282311F060837183990F3496E41701
S1130310F507B1F708958F929F92AF92BF92DF9243
S1130320EF92FF920F931F93CF93DF93809011204E
S113033090901220A0901320B0901420E0E0F0E2FE
S113034080E090E001E010E0C0E4D6E0D82EDF01C8
S1130350208131812115310599F140910D20509171
S11303600E2060910F207091102084169506A60629
S1130370B70690F440910D2050910E2060910F200B
S113038070911020481959096A097B09E280F380A9
S11303904E0D5F1D4283538312964D915C911397CA
S11303A04217530768F0421B530B12964D935C930C
S11303B01397980102C0220F331FDA94E2F72F83B8
S11303C0019634968330910509F680910D20909121
S11303D00E20A0910F20B0911020809311209093B3
S11303E01220A0931320B0931420DF91CF911F917A
S11303F00F91FF90EF90DF90BF90AF909F908F9000
S113040008957894E0EAF0E08281876082830E9414
S113041014010E94200164E670E081E00E947B01E7
S11304206AEF70E082E00E947B0164EF71E084E097
S11304300E947B0180910C208130E1F70E948B01A6
S113044010920C20F7CFA1E21A2EAA1BBB1BFD01B0
S11304500DC0AA1FBB1FEE1FFF1FA217B307E4079F
S1130460F50720F0A21BB30BE40BF50B661F771FF7
S1130470881F991F1A9469F76095709580959095D7
S11104809B01AC01BD01CF010895F894FFCF9C
S9030000FC
