S0160000426174744F7250726F6A656374312E73726563BA
S11300000C94FE000C9412010C9412010C94120135
S11300100C9412010C9412010C9412010C94120110
S11300200C9412010C9412010C9412010C94120100
S11300300C9412010C9412010C9421010C941201E1
S11300400C9412010C9412010C9412010C941201E0
S11300500C9412010C9412010C9412010C941201D0
S11300600C9412010C9412010C9412010C941201C0
S11300700C9412010C9412010C9412010C941201B0
S11300800C9412010C9412010C9412010C941201A0
S11300900C9412010C9412010C9412010C94120190
S11300A00C9412010C9412010C9412010C94120180
S11300B00C9412010C9412010C9412010C94120170
S11300C00C9412010C9412010C9412010C94120160
S11300D00C9412010C9412010C9412010C94120150
S11300E00C9412010C9412010C9412010C94120140
S11300F00C9412010C9412010C9412010C94120130
S11301000C9412010C9412010C9412010C9412011F
S11301100C9412010C9412010C9412010C9412010F
S11301200C9412010C9412010C9412010C941201FF
S11301300C9412010C9412010C9412010C941201EF
S11301400C9412010C9412010C9412010C941201DF
S11301500C9412010C9412010C9412010C941201CF
S11301600C9412010C9412010C9412010C941201BF
S11301700C9412010C9412010C9412010C941201AF
S11301800C9412010C9412010C9412010C9412019F
S11301900C9412010C9412010C9412010C9412018F
S11301A00C9412010C9412010C9412010C9412017F
S11301B00C9412010C9412010C9412010C9412016F
S11301C00C9412010C9412010C9412010C9412015F
S11301D00C9412010C9412010C9412010C9412014F
S11301E00C9412010C9412010C9412010C9412013F
S11301F00C9412010C9412010C94120111241FBED0
S1130200CFEFCDBFDFE5DEBF00E00CBF20E2A0E012
S1130210B0E201C01D92A631B207E1F70E942402A8
S11302200C9477020C94000063E080E098E00E9454
S1130230480240ED57E061E080E098E00E944F0200
S113024008951F920F920FB60F9211240BB60F92BE
S11302502F933F934F935F936F937F938F939F93CA
S1130260AF93BF93EF93FF9380910D2090910E2055
S1130270A0910F20B09110200196A11DB11D809373
S11302800D2090930E20A0930F20B0931020609126
S11302900D2070910E2080910F209091102025E068
S11302A030E040E050E00E945502672B682B692B38
S11302B019F481E080930C20FF91EF91BF91AF91ED
S11302C09F918F917F916F915F914F913F912F916A
S11302D00F900BBE0F900FBE0F901F901895E0E08B
S11302E0F0E24CE050E291E0292F282311F06083E2
S11302F07183990F3496E417F507B1F708958F9237
S11303009F92AF92BF92EF92FF920F931F93CF935E
S1130310DF9300E010E2C0E0D0E0FF24F394EC2E81
S1130320F801808191810097B9F18090112090901B
S11303301220A0901320B090142040910D205091D1
S11303400E2060910F207091102084169506A60649
S1130350B70690F440910D2050910E2060910F202B
S113036070911020481959096A097B092281338147
S1130370420F531F42835383228133812817390745
S113038058F0281B390B228333838F2D01C0880F2B
S1130390EA94EAF70E94210221960C5F1F4FC330B2
S11303A0D10509F0BCCF80910D2090910E20A09131
S11303B00F20B09110208093112090931220A093CD
S11303C01320B0931420DF91CF911F910F91FF90D0
S11303D0EF90BF90AF909F908F900895E0E5F0E08C
S11303E08BEC8283808188608083818183FFFDCF51
S11303F088ED84BF83E0809340000895442319F07E
S1130400FC0161830895FC016283089541E061E089
S113041080E496E00E94FE0141E062E080E496E020
S11304200E94FE0141E064E080E496E00E94FE0147
S1130430E0E4F6E081E0858382E0858384E08583DF
S113044008958093470608957894E0EAF0E0828165
S1130450876082830E9406020E94140164E670E0B1
S113046081E00E946F016AEF70E082E00E946F01F8
S113047064EF71E084E00E946F010E94EE018091BC
S11304800C208130E1F70E947F0110920C20F7CFFD
S1130490FC01818588608187617066830895677037
S11304A0FC01608346A357A30895A1E21A2EAA1B58
S11304B0BB1BFD010DC0AA1FBB1FEE1FFF1FA21710
S11304C0B307E407F50720F0A21BB30BE40BF50B0D
S11304D0661F771F881F991F1A9469F76095709596
S11304E0809590959B01AC01BD01CF010895F894CE
S10504F0FFCF38
S9030000FC
