S0160000426174744F7250726F6A656374312E73726563BA
S11300000C9402010C9423010C9423010C942301FD
S11300100C9423010C9423010C9423010C942301CC
S11300200C9423010C9423010C9423010C942301BC
S11300300C9423010C9423010C9432010C9423019D
S11300400C9423010C9423010C9423010C9423019C
S11300500C9423010C9423010C9423010C9423018C
S11300600C9423010C9423010C9423010C9423017C
S11300700C9423010C9423010C9423010C9423016C
S11300800C9423010C9423010C9423010C9423015C
S11300900C9423010C9423010C9423010C9423014C
S11300A00C9423010C9423010C9423010C9423013C
S11300B00C9423010C9423010C9423010C9423012C
S11300C00C9423010C9423010C9423010C9423011C
S11300D00C9423010C9423010C9423010C9423010C
S11300E00C9423010C9423010C9423010C942301FC
S11300F00C9423010C9423010C9423010C942301EC
S11301000C9423010C9423010C9423010C942301DB
S11301100C9423010C9423010C9423010C942301CB
S11301200C9423010C9423010C9423010C942301BB
S11301300C9423010C9423010C9423010C942301AB
S11301400C9423010C9423010C9423010C9423019B
S11301500C9423010C9423010C9423010C9423018B
S11301600C9423010C9423010C9423010C9423017B
S11301700C9423010C9423010C9423010C9423016B
S11301800C9423010C9423010C9423010C9423015B
S11301900C9423010C9423010C9423010C9423014B
S11301A00C9423010C9423010C9423010C9423013B
S11301B00C9423010C9423010C9423010C9423012B
S11301C00C9423010C9423010C9423010C9423011B
S11301D00C9423010C9423010C9423010C9423010B
S11301E00C9423010C9423010C9423010C942301FB
S11301F00C9423010C9423010C9423010C945F02AE
S11302000C94410211241FBECFEFCDBFDFE5DEBF4A
S113021000E00CBF10E2A0E0B0E2EEE9FAE000E09A
S11302200BBF02C007900D92A431B107D9F720E2A9
S1130230A4E1B0E201C01D92A033B207E1F70E942D
S113024011020C944D050C94000063E080E098E0EA
S11302500E94730240ED57E061E080E098E00E9464
S11302607A0208951F920F920FB60F9211248F9362
S11302709F93AF93BF938091212090912220A091CE
S11302802320B09124200196A11DB11D809321202B
S113029090932220A0932320B093242080912020A7
S11302A08F5F80932020BF91AF919F918F910F908A
S11302B00FBE0F901F901895E4E1F0E240E250E287
S11302C091E0292F282311F060837183990F3496CC
S11302D0E417F507B1F708958F929F92AF92BF92FA
S11302E0EF92FF920F931F93CF93DF9304E110E2F9
S11302F0C0E0D0E0FF24F394EC2EF80180819181DA
S11303000097B9F18090252090902620A090272076
S1130310B0902820409121205091222060912320E8
S11303207091242084169506A606B70690F4409191
S1130330212050912220609123207091242048197B
S113034059096A097B0922813381420F531F428371
S11303505383228133812817390758F0281B390B1E
S1130360228333838F2D01C0880FEA94EAF70E9419
S11303700E0221960C5F1F4FC330D10509F0BCCF8C
S11303808091212090912220A0912320B0912420BB
S11303908093252090932620A0932720B093282093
S11303A0DF91CF911F910F91FF90EF90BF90AF908D
S11303B09F908F900895E0E5F0E08BEC828380813C
S11303C088608083818183FFFDCF88ED84BF83E0D3
S11303D0809340000895442319F0FC01618308953B
S11303E0FC016283089541E061E080E496E00E94AC
S11303F0EB0141E062E080E496E00E94EB0141E021
S113040064E080E496E00E94EB01E0E4F6E081E041
S1130410858382E0858384E08583089580934706FD
S113042008957894E0EAF0E08281876082830E94F4
S1130430F3010E94250164E670E081E00E945C0102
S11304406AEF70E082E00E945C0164EF71E084E096
S11304500E945C010E94DB010E9480020E946802EB
S1130460CEE0D0E2DF93CF930E94980280912020C7
S11304700F900F908530B0F30E946C0110922020F1
S1130480F1CFE0EAF9E0918195FFFDCF8093A009D7
S1130490E0EAF9E0918196FFFDCF8A3069F4E0EA61
S11304A0F9E0818185FFFDCF8DE08093A009E0EA2A
S11304B0F9E0818186FFFDCF80E090E00895E0EAD5
S11304C0F9E081818823ECF78091A00990E00895F8
S11304D00E948002EAE2F0E280E090E28283938369
S11304E0808391830895FC01818588608187617090
S11304F0668308956770FC01608346A357A308953B
S113050040E064E080E696E00E94EB0141E068E0B0
S113051080E696E00E94EB0188E080936506E0EABD
S1130520F9E088E1848383E0858316821782089545
S1130530CF93DF93CDB7DEB7AE014A5F5F4FFA01C9
S113054061917191AF0180912C2090912D200E9496
S1130550AC02DF91CF9108952F923F924F925F9218
S11305606F927F928F929F92AF92BF92CF92DF92BF
S1130570EF92FF920F931F93CF93DF93CDB7DEB724
S11305802C97CDBFDEBF7C016B018A01FC01168272
S11305901782838181FFBDC1CE0101964C01F70111
S11305A09381F60193FD859193FF81916F018823D7
S11305B009F4ABC1853239F493FD859193FF8191A0
S11305C06F01853229F4B70190E00E94B704E7CFA8
S11305D0512C312C20E02032A0F48B3269F030F41D
S11305E0803259F0833269F420612CC08D3239F0A5
S11305F0803339F4216026C02260246023C028603F
S113060021C027FD27C030ED380F3A3078F426FF9B
S113061006C0FAE05F9E300D1124532E13C08AE009
S1130620389E300D1124332E20620CC08E3221F4FA
S113063026FD6BC1206406C08C3611F4206802C00C
S1130640883641F4F60193FD859193FF81916F0102
S11306508111C1CF982F9F7D9554933028F40C5F5E
S11306601F4FFFE3F9830DC0833631F0833771F0F8
S1130670833509F05BC022C0F801808189830E5F55
S11306801F4F44244394512C540115C03801F2E007
S11306906F0E711CF801A080B18026FF03C0652D88
S11306A070E002C06FEF7FEFC5012C870E94AC049D
S11306B02C0183012C852F77222E17C03801F2E0FC
S11306C06F0E711CF801A080B18026FF03C0652D58
S11306D070E002C06FEF7FEFC5012C870E94A10478
S11306E02C012C852068222E830123FC1BC0832D22
S11306F090E048165906B0F4B70180E290E00E94F9
S1130700B7043A94F4CFF50127FC859127FE819133
S11307105F01B70190E00E94B70431103A94F1E010
S11307204F1A51084114510471F7E5C0843611F091
S1130730893639F5F80127FF07C06081718182810C
S113074093810C5F1F4F08C060817181072E000CDC
S1130750880B990B0E5F1F4F2F76722E97FF09C0DF
S113076090958095709561957F4F8F4F9F4F20682E
S1130770722E2AE030E0A4010E94EF04A82EA818EB
S113078044C0853729F42F7EB22E2AE030E025C0FC
S1130790F22FF97FBF2E8F36C1F018F4883579F027
S11307A0B4C0803719F0883721F0AFC02F2F2061F3
S11307B0B22EB4FE0DC08B2D8460B82E09C024FF68
S11307C00AC09F2F9660B92E06C028E030E005C00D
S11307D020E130E002C020E132E0F801B7FE07C0BA
S11307E060817181828193810C5F1F4F06C060819B
S11307F0718180E090E00E5F1F4FA4010E94EF041E
S1130800A82EA818FB2DFF777F2E76FE0BC0372D60
S11308103E7FA51450F474FE0AC072FC08C0372D44
S11308203E7E05C0BA2C372D03C0BA2C01C0B52CAE
S113083034FF0DC0FE01EA0DF11D8081803311F4F7
S1130840397E09C032FF06C0B394B39404C0832F29
S1130850867809F0B39433FD13C030FF06C05A2CD8
S1130860B31418F4530C5B18B32CB31468F4B70125
S113087080E290E03C870E94B704B3943C85F5CFB6
S1130880B31410F43B1801C0312C34FF12C0B7016B
S113089080E390E03C870E94B7043C8532FF17C098
S11308A031FD03C088E790E002C088E590E0B7011D
S11308B00CC0832F867859F031FF02C08BE201C04F
S11308C080E237FD8DE2B70190E00E94B704A514E1
S11308D038F4B70180E390E00E94B7045A94F7CF4C
S11308E0AA94F401EA0DF11D8081B70190E00E9401
S11308F0B704A110F5CF332009F451CEB70180E23B
S113090090E00E94B7043A94F6CFF701868197816C
S113091002C08FEF9FEF2C96CDBFDEBFDF91CF914A
S11309201F910F91FF90EF90DF90CF90BF90AF9009
S11309309F908F907F906F905F904F903F902F90FB
S11309400895FC010590615070400110D8F780951E
S113095090958E0F9F1F0895FC0161507040019087
S11309600110D8F7809590958E0F9F1F08950F93CF
S11309701F93CF93DF93FB01238121FD03C08FEFEE
S11309809FEF28C022FF16C04681578124813581FC
S11309904217530744F4A081B1819D012F5F3F4F5B
S11309A0208331838C93268137812F5F3F4F2683A9
S11309B0378310C0EB01092F182F0084F185E02D37
S11309C01995892BE1F68E819F8101968E839F83F1
S11309D0812F902FDF91CF911F910F910895FA01EC
S11309E0AA27283051F1203181F1E8946F936E7F6A
S11309F06E5F7F4F8F4F9F4FAF4FB1E03ED0B4E05B
S1130A003CD0670F781F891F9A1FA11D680F791F9B
S1130A108A1F911DA11D6A0F711D811D911DA11DAC
S1130A2020D009F468943F912AE0269F11243019BC
S1130A30305D3193DEF6CF010895462F4770405D57
S1130A404193B3E00FD0C9F7F6CF462F4F70405D06
S1130A504A3318F0495D31FD4052419302D0A9F761
S1130A60EACFB4E0A6959795879577956795BA955B
S1130A70C9F700976105710508959B01AC010A2E21
S1130A8006945795479537952795BA95C9F7620FF8
S1110A90731F841F951FA01D0895F894FFCFB7
S1130A9E000000030000000041025F0200006875C0
S1070AAE6C6C6F00F9
S9030000FC
